{
  "address": "0x709b4b1a8A0787b40aa894C133C8E68AEdf74176",
  "abi": [
    {
      "inputs": [
        {
          "internalType": "address",
          "name": "oracleId_",
          "type": "address"
        },
        {
          "internalType": "string",
          "name": "jobId_",
          "type": "string"
        },
        {
          "internalType": "uint256",
          "name": "fee_",
          "type": "uint256"
        }
      ],
      "stateMutability": "nonpayable",
      "type": "constructor"
    },
    {
      "anonymous": false,
      "inputs": [
        {
          "indexed": true,
          "internalType": "bytes32",
          "name": "id",
          "type": "bytes32"
        }
      ],
      "name": "ChainlinkCancelled",
      "type": "event"
    },
    {
      "anonymous": false,
      "inputs": [
        {
          "indexed": true,
          "internalType": "bytes32",
          "name": "id",
          "type": "bytes32"
        }
      ],
      "name": "ChainlinkFulfilled",
      "type": "event"
    },
    {
      "anonymous": false,
      "inputs": [
        {
          "indexed": true,
          "internalType": "bytes32",
          "name": "id",
          "type": "bytes32"
        }
      ],
      "name": "ChainlinkRequested",
      "type": "event"
    },
    {
      "anonymous": false,
      "inputs": [
        {
          "indexed": true,
          "internalType": "address",
          "name": "from",
          "type": "address"
        },
        {
          "indexed": true,
          "internalType": "address",
          "name": "to",
          "type": "address"
        }
      ],
      "name": "OwnershipTransferRequested",
      "type": "event"
    },
    {
      "anonymous": false,
      "inputs": [
        {
          "indexed": true,
          "internalType": "address",
          "name": "from",
          "type": "address"
        },
        {
          "indexed": true,
          "internalType": "address",
          "name": "to",
          "type": "address"
        }
      ],
      "name": "OwnershipTransferred",
      "type": "event"
    },
    {
      "inputs": [],
      "name": "acceptOwnership",
      "outputs": [],
      "stateMutability": "nonpayable",
      "type": "function"
    },
    {
      "inputs": [
        {
          "internalType": "string",
          "name": "newJobId",
          "type": "string"
        }
      ],
      "name": "changeJobId",
      "outputs": [],
      "stateMutability": "nonpayable",
      "type": "function"
    },
    {
      "inputs": [
        {
          "internalType": "address",
          "name": "newOracle",
          "type": "address"
        }
      ],
      "name": "changeOracle",
      "outputs": [],
      "stateMutability": "nonpayable",
      "type": "function"
    },
    {
      "inputs": [],
      "name": "fee",
      "outputs": [
        {
          "internalType": "uint256",
          "name": "",
          "type": "uint256"
        }
      ],
      "stateMutability": "view",
      "type": "function"
    },
    {
      "inputs": [
        {
          "internalType": "bytes32",
          "name": "requestId",
          "type": "bytes32"
        },
        {
          "internalType": "bytes",
          "name": "inflation",
          "type": "bytes"
        }
      ],
      "name": "fulfillPrice",
      "outputs": [],
      "stateMutability": "nonpayable",
      "type": "function"
    },
    {
      "inputs": [],
      "name": "getChainlinkToken",
      "outputs": [
        {
          "internalType": "address",
          "name": "",
          "type": "address"
        }
      ],
      "stateMutability": "view",
      "type": "function"
    },
    {
      "inputs": [],
      "name": "getPrice",
      "outputs": [
        {
          "internalType": "uint256",
          "name": "",
          "type": "uint256"
        }
      ],
      "stateMutability": "view",
      "type": "function"
    },
    {
      "inputs": [],
      "name": "jobId",
      "outputs": [
        {
          "internalType": "string",
          "name": "",
          "type": "string"
        }
      ],
      "stateMutability": "view",
      "type": "function"
    },
    {
      "inputs": [],
      "name": "oracleId",
      "outputs": [
        {
          "internalType": "address",
          "name": "",
          "type": "address"
        }
      ],
      "stateMutability": "view",
      "type": "function"
    },
    {
      "inputs": [],
      "name": "owner",
      "outputs": [
        {
          "internalType": "address",
          "name": "",
          "type": "address"
        }
      ],
      "stateMutability": "view",
      "type": "function"
    },
    {
      "inputs": [],
      "name": "price",
      "outputs": [
        {
          "internalType": "uint256",
          "name": "",
          "type": "uint256"
        }
      ],
      "stateMutability": "view",
      "type": "function"
    },
    {
      "inputs": [],
      "name": "requestPrice",
      "outputs": [
        {
          "internalType": "bytes32",
          "name": "requestId",
          "type": "bytes32"
        }
      ],
      "stateMutability": "nonpayable",
      "type": "function"
    },
    {
      "inputs": [
        {
          "internalType": "address",
          "name": "to",
          "type": "address"
        }
      ],
      "name": "transferOwnership",
      "outputs": [],
      "stateMutability": "nonpayable",
      "type": "function"
    },
    {
      "inputs": [],
      "name": "withdrawLink",
      "outputs": [],
      "stateMutability": "nonpayable",
      "type": "function"
    }
  ],
  "transactionHash": "0x7152000f9671917c6e4abd351fc4899f52ce50bd4cc769bc6505a859ae86b782",
  "args": [
    "0xcf72083697aB8A45905870C387dC93f380f2557b",
    "f5da3804575a44a082347fababc4f11d",
    0
  ],
  "numDeployments": 2,
  "solcInputHash": "40d9ab87899c347d2dc0d4775bfb4e9c",
  "bytecode": "0x608060405260016004553480156200001657600080fd5b506040516200193e3803806200193e833981016040819052620000399162000205565b3380600081620000905760405162461bcd60e51b815260206004820152601860248201527f43616e6e6f7420736574206f776e657220746f207a65726f000000000000000060448201526064015b60405180910390fd5b600680546001600160a01b0319166001600160a01b0384811691909117909155811615620000c357620000c38162000121565b505050620000eb73326c977e6efc84e512bb9c30f76e30c160ed06fb620001cd60201b60201c565b600980546001600160a01b0319166001600160a01b038516179055600a6200011483826200039d565b50600b5550620004699050565b336001600160a01b038216036200017b5760405162461bcd60e51b815260206004820152601760248201527f43616e6e6f74207472616e7366657220746f2073656c66000000000000000000604482015260640162000087565b600780546001600160a01b0319166001600160a01b03838116918217909255600654604051919216907fed8889f560326eb138920d842192f0eb3dd22b4f139c87a2c57538e05bae127890600090a350565b600280546001600160a01b0319166001600160a01b0392909216919091179055565b634e487b7160e01b600052604160045260246000fd5b6000806000606084860312156200021b57600080fd5b83516001600160a01b03811681146200023357600080fd5b602085810151919450906001600160401b03808211156200025357600080fd5b818701915087601f8301126200026857600080fd5b8151818111156200027d576200027d620001ef565b604051601f8201601f19908116603f01168101908382118183101715620002a857620002a8620001ef565b816040528281528a86848701011115620002c157600080fd5b600093505b82841015620002e55784840186015181850187015292850192620002c6565b82841115620002f75760008684830101525b809750505050505050604084015190509250925092565b600181811c908216806200032357607f821691505b6020821081036200034457634e487b7160e01b600052602260045260246000fd5b50919050565b601f8211156200039857600081815260208120601f850160051c81016020861015620003735750805b601f850160051c820191505b8181101562000394578281556001016200037f565b5050505b505050565b81516001600160401b03811115620003b957620003b9620001ef565b620003d181620003ca84546200030e565b846200034a565b602080601f831160018114620004095760008415620003f05750858301515b600019600386901b1c1916600185901b17855562000394565b600085815260208120601f198616915b828110156200043a5788860151825594840194600190910190840162000419565b5085821015620004595787850151600019600388901b60f8161c191681555b5050505050600190811b01905550565b6114c580620004796000396000f3fe608060405234801561001057600080fd5b50600436106100ea5760003560e01c80639063e2161161008c578063c2939d9711610066578063c2939d9714610197578063ddca3f43146101ac578063ebe337ac146101b5578063f2fde38b146101c857600080fd5b80639063e2161461017357806398d5fdca14610186578063a035b1fe1461018e57600080fd5b806347c421b5116100c857806347c421b51461013d57806379ba5097146101525780638da5cb5b1461015a5780638dc654a21461016b57600080fd5b80631604f9ea146100ef578063165d35e11461010a5780632121778d1461012a575b600080fd5b6100f76101db565b6040519081526020015b60405180910390f35b610112610374565b6040516001600160a01b039091168152602001610101565b600954610112906001600160a01b031681565b61015061014b366004610eef565b61038d565b005b6101506103b7565b6006546001600160a01b0316610112565b61015061046a565b610150610181366004610fa4565b6105ae565b6008546100f7565b6100f760085481565b61019f6105c6565b604051610101919061103a565b6100f7600b5481565b6101506101c336600461104d565b610654565b6101506101d6366004610eef565b610721565b6000806101f96101eb600a6110dc565b30633af8cdeb60e21b610732565b9050610251604051806040016040528060078152602001667365727669636560c81b8152506040518060400160405280600a81526020016936b4b732b93a37b5b2b760b11b815250836107579092919063ffffffff16565b6102a2604051806040016040528060078152602001660d6caf2e0c2e8d60cb1b81525060405180604001604052806005815260200164707269636560d81b815250836107579092919063ffffffff16565b6102f16040518060400160405280600381526020016261626960e81b815250604051806040016040528060078152602001663ab4b73a191a9b60c91b815250836107579092919063ffffffff16565b6103536040518060400160405280600a81526020016936bab63a34b83634b2b960b11b8152506040518060400160405280601381526020017203130303030303030303030303030303030303606c1b815250836107579092919063ffffffff16565b600954600b5461036e916001600160a01b031690839061077a565b91505090565b60006103886002546001600160a01b031690565b905090565b61039561080d565b600980546001600160a01b0319166001600160a01b0392909216919091179055565b6007546001600160a01b0316331461040f5760405162461bcd60e51b815260206004820152601660248201527526bab9ba10313290383937b837b9b2b21037bbb732b960511b60448201526064015b60405180910390fd5b600680546001600160a01b0319808216339081179093556007805490911690556040516001600160a01b03909116919082907f8be0079c531659141344cd1fd0a4f28419497f9722a3daafe3b4186f6b6457e090600090a350565b61047261080d565b60006104866002546001600160a01b031690565b6040516370a0823160e01b81523060048201529091506001600160a01b0382169063a9059cbb90339083906370a0823190602401602060405180830381865afa1580156104d7573d6000803e3d6000fd5b505050506040513d601f19601f820116820180604052508101906104fb919061111d565b6040516001600160e01b031960e085901b1681526001600160a01b03909216600483015260248201526044016020604051808303816000875af1158015610546573d6000803e3d6000fd5b505050506040513d601f19601f8201168201806040525081019061056a9190611136565b6105ab5760405162461bcd60e51b81526020600482015260126024820152712ab730b13632903a37903a3930b739b332b960711b6044820152606401610406565b50565b6105b661080d565b600a6105c282826111a6565b5050565b600a80546105d3906110a8565b80601f01602080910402602001604051908101604052809291908181526020018280546105ff906110a8565b801561064c5780601f106106215761010080835404028352916020019161064c565b820191906000526020600020905b81548152906001019060200180831161062f57829003601f168201915b505050505081565b60008281526005602052604090205482906001600160a01b031633146106cd5760405162461bcd60e51b815260206004820152602860248201527f536f75726365206d75737420626520746865206f7261636c65206f6620746865604482015267081c995c5d595cdd60c21b6064820152608401610406565b60008181526005602052604080822080546001600160a01b03191690555182917f7cc135e0cebb02c3480ae5d74d377283180a2601f8f644edf7987b009316c63a91a261071982611266565b600855505050565b61072961080d565b6105ab81610862565b61073a610eb4565b610742610eb4565b61074e8186868661090c565b95945050505050565b60808301516107669083610952565b60808301516107759082610952565b505050565b60045460009061078b8160016112a0565b600455835160408086015160808701515191516000936320214ca360e11b936107c39386938493923092918a916001916024016112b8565b60408051601f198184030181529190526020810180516001600160e01b03166001600160e01b031990931692909217909152905061080386838684610969565b9695505050505050565b6006546001600160a01b031633146108605760405162461bcd60e51b815260206004820152601660248201527527b7363c9031b0b63630b1363290313c9037bbb732b960511b6044820152606401610406565b565b336001600160a01b038216036108ba5760405162461bcd60e51b815260206004820152601760248201527f43616e6e6f74207472616e7366657220746f2073656c660000000000000000006044820152606401610406565b600780546001600160a01b0319166001600160a01b03838116918217909255600654604051919216907fed8889f560326eb138920d842192f0eb3dd22b4f139c87a2c57538e05bae127890600090a350565b610914610eb4565b6109248560800151610100610ac7565b50508284526001600160a01b03821660208501526001600160e01b031981166040850152835b949350505050565b61095f8260038351610b32565b6107758282610c47565b6040516bffffffffffffffffffffffff193060601b1660208201526034810184905260009060540160408051808303601f1901815282825280516020918201206000818152600590925291812080546001600160a01b0319166001600160a01b038a1617905590925082917fb5e6e01e79f91267dc17b4e6314d5d4d03593d2ceee0fbb452b750bd70ea5af99190a2600254604051630200057560e51b81526001600160a01b0390911690634000aea090610a2c90889087908790600401611320565b6020604051808303816000875af1158015610a4b573d6000803e3d6000fd5b505050506040513d601f19601f82011682018060405250810190610a6f9190611136565b61094a5760405162461bcd60e51b815260206004820152602360248201527f756e61626c6520746f207472616e73666572416e6443616c6c20746f206f7261604482015262636c6560e81b6064820152608401610406565b604080518082019091526060815260006020820152610ae7602083611347565b15610b0f57610af7602083611347565b610b02906020611369565b610b0c90836112a0565b91505b506020808301829052604080518085526000815283019091019052815b92915050565b60178167ffffffffffffffff1611610b5d57610b578360e0600585901b168317610c75565b50505050565b60ff8167ffffffffffffffff1611610b9b57610b84836018611fe0600586901b1617610c75565b50610b578367ffffffffffffffff83166001610c9a565b61ffff8167ffffffffffffffff1611610bda57610bc3836019611fe0600586901b1617610c75565b50610b578367ffffffffffffffff83166002610c9a565b63ffffffff8167ffffffffffffffff1611610c1b57610c0483601a611fe0600586901b1617610c75565b50610b578367ffffffffffffffff83166004610c9a565b610c3083601b611fe0600586901b1617610c75565b50610b578367ffffffffffffffff83166008610c9a565b604080518082019091526060815260006020820152610c6e83846000015151848551610cc0565b9392505050565b604080518082019091526060815260006020820152610c6e8384600001515184610daa565b60408051808201909152606081526000602082015261094a848560000151518585610e05565b6040805180820190915260608152600060208201528251821115610ce357600080fd5b6020850151610cf283866112a0565b1115610d2557610d2585610d1587602001518786610d1091906112a0565b610e86565b610d20906002611380565b610e9d565b600080865180518760208301019350808887011115610d445787860182525b505050602084015b60208410610d845780518252610d636020836112a0565b9150610d706020826112a0565b9050610d7d602085611369565b9350610d4c565b51815160001960208690036101000a019081169019919091161790525083949350505050565b60408051808201909152606081526000602082015283602001518310610ddf57610ddf8485602001516002610d209190611380565b8351805160208583010184815350808503610dfb576001810182525b5093949350505050565b6040805180820190915260608152600060208201526020850151610e2985846112a0565b1115610e3d57610e3d85610d1586856112a0565b60006001610e4d84610100611483565b610e579190611369565b9050855183868201018583198251161781525080518487011115610e7b5783860181525b509495945050505050565b600081831115610e97575081610b2c565b50919050565b8151610ea98383610ac7565b50610b578382610c47565b6040805160a0810182526000808252602080830182905282840182905260608084018390528451808601909552845283015290608082015290565b600060208284031215610f0157600080fd5b81356001600160a01b0381168114610c6e57600080fd5b634e487b7160e01b600052604160045260246000fd5b600067ffffffffffffffff80841115610f4957610f49610f18565b604051601f8501601f19908116603f01168101908282118183101715610f7157610f71610f18565b81604052809350858152868686011115610f8a57600080fd5b858560208301376000602087830101525050509392505050565b600060208284031215610fb657600080fd5b813567ffffffffffffffff811115610fcd57600080fd5b8201601f81018413610fde57600080fd5b61094a84823560208401610f2e565b6000815180845260005b8181101561101357602081850181015186830182015201610ff7565b81811115611025576000602083870101525b50601f01601f19169290920160200192915050565b602081526000610c6e6020830184610fed565b6000806040838503121561106057600080fd5b82359150602083013567ffffffffffffffff81111561107e57600080fd5b8301601f8101851361108f57600080fd5b61109e85823560208401610f2e565b9150509250929050565b600181811c908216806110bc57607f821691505b602082108103610e9757634e487b7160e01b600052602260045260246000fd5b60006110e882546110a8565b82601f8211156110fe5783600052602060002090505b5491506020811015610e975760001960209190910360031b1b16919050565b60006020828403121561112f57600080fd5b5051919050565b60006020828403121561114857600080fd5b81518015158114610c6e57600080fd5b601f82111561077557600081815260208120601f850160051c8101602086101561117f5750805b601f850160051c820191505b8181101561119e5782815560010161118b565b505050505050565b815167ffffffffffffffff8111156111c0576111c0610f18565b6111d4816111ce84546110a8565b84611158565b602080601f83116001811461120957600084156111f15750858301515b600019600386901b1c1916600185901b17855561119e565b600085815260208120601f198616915b8281101561123857888601518255948401946001909101908401611219565b50858210156112565787850151600019600388901b60f8161c191681555b5050505050600190811b01905550565b80516020808301519190811015610e975760001960209190910360031b1b16919050565b634e487b7160e01b600052601160045260246000fd5b600082198211156112b3576112b361128a565b500190565b6001600160a01b0389811682526020820189905260408201889052861660608201526001600160e01b03198516608082015260a0810184905260c0810183905261010060e0820181905260009061131183820185610fed565b9b9a5050505050505050505050565b60018060a01b038416815282602082015260606040820152600061074e6060830184610fed565b60008261136457634e487b7160e01b600052601260045260246000fd5b500690565b60008282101561137b5761137b61128a565b500390565b600081600019048311821515161561139a5761139a61128a565b500290565b600181815b808511156113da5781600019048211156113c0576113c061128a565b808516156113cd57918102915b93841c93908002906113a4565b509250929050565b6000826113f157506001610b2c565b816113fe57506000610b2c565b8160018114611414576002811461141e5761143a565b6001915050610b2c565b60ff84111561142f5761142f61128a565b50506001821b610b2c565b5060208310610133831016604e8410600b841016171561145d575081810a610b2c565b611467838361139f565b806000190482111561147b5761147b61128a565b029392505050565b6000610c6e83836113e256fea2646970667358221220779fe539a8dd58fe17e046c381331e6991f4c968ffbaa45e47b37f2e7ea5137264736f6c634300080f0033",
  "devdoc": {
    "kind": "dev",
    "methods": {},
    "version": 1
  },
  "userdoc": {
    "kind": "user",
    "methods": {
      "acceptOwnership()": {
        "notice": "Allows an ownership transfer to be completed by the recipient."
      },
      "owner()": {
        "notice": "Get the current owner"
      },
      "transferOwnership(address)": {
        "notice": "Allows an owner to begin transferring ownership to a new address, pending."
      }
    },
    "version": 1
  },
  "storageLayout": {
    "storage": [
      {
        "astId": 319,
        "contract": "contracts/TruflationKeeper.sol:TruflationKeeper",
        "label": "s_ens",
        "offset": 0,
        "slot": "0",
        "type": "t_contract(ENSInterface)1156"
      },
      {
        "astId": 321,
        "contract": "contracts/TruflationKeeper.sol:TruflationKeeper",
        "label": "s_ensNode",
        "offset": 0,
        "slot": "1",
        "type": "t_bytes32"
      },
      {
        "astId": 324,
        "contract": "contracts/TruflationKeeper.sol:TruflationKeeper",
        "label": "s_link",
        "offset": 0,
        "slot": "2",
        "type": "t_contract(LinkTokenInterface)1251"
      },
      {
        "astId": 327,
        "contract": "contracts/TruflationKeeper.sol:TruflationKeeper",
        "label": "s_oracle",
        "offset": 0,
        "slot": "3",
        "type": "t_contract(OperatorInterface)1331"
      },
      {
        "astId": 330,
        "contract": "contracts/TruflationKeeper.sol:TruflationKeeper",
        "label": "s_requestCount",
        "offset": 0,
        "slot": "4",
        "type": "t_uint256"
      },
      {
        "astId": 334,
        "contract": "contracts/TruflationKeeper.sol:TruflationKeeper",
        "label": "s_pendingRequests",
        "offset": 0,
        "slot": "5",
        "type": "t_mapping(t_bytes32,t_address)"
      },
      {
        "astId": 889,
        "contract": "contracts/TruflationKeeper.sol:TruflationKeeper",
        "label": "s_owner",
        "offset": 0,
        "slot": "6",
        "type": "t_address"
      },
      {
        "astId": 891,
        "contract": "contracts/TruflationKeeper.sol:TruflationKeeper",
        "label": "s_pendingOwner",
        "offset": 0,
        "slot": "7",
        "type": "t_address"
      },
      {
        "astId": 2390,
        "contract": "contracts/TruflationKeeper.sol:TruflationKeeper",
        "label": "price",
        "offset": 0,
        "slot": "8",
        "type": "t_uint256"
      },
      {
        "astId": 2392,
        "contract": "contracts/TruflationKeeper.sol:TruflationKeeper",
        "label": "oracleId",
        "offset": 0,
        "slot": "9",
        "type": "t_address"
      },
      {
        "astId": 2394,
        "contract": "contracts/TruflationKeeper.sol:TruflationKeeper",
        "label": "jobId",
        "offset": 0,
        "slot": "10",
        "type": "t_string_storage"
      },
      {
        "astId": 2396,
        "contract": "contracts/TruflationKeeper.sol:TruflationKeeper",
        "label": "fee",
        "offset": 0,
        "slot": "11",
        "type": "t_uint256"
      }
    ],
    "types": {
      "t_address": {
        "encoding": "inplace",
        "label": "address",
        "numberOfBytes": "20"
      },
      "t_bytes32": {
        "encoding": "inplace",
        "label": "bytes32",
        "numberOfBytes": "32"
      },
      "t_contract(ENSInterface)1156": {
        "encoding": "inplace",
        "label": "contract ENSInterface",
        "numberOfBytes": "20"
      },
      "t_contract(LinkTokenInterface)1251": {
        "encoding": "inplace",
        "label": "contract LinkTokenInterface",
        "numberOfBytes": "20"
      },
      "t_contract(OperatorInterface)1331": {
        "encoding": "inplace",
        "label": "contract OperatorInterface",
        "numberOfBytes": "20"
      },
      "t_mapping(t_bytes32,t_address)": {
        "encoding": "mapping",
        "key": "t_bytes32",
        "label": "mapping(bytes32 => address)",
        "numberOfBytes": "32",
        "value": "t_address"
      },
      "t_string_storage": {
        "encoding": "bytes",
        "label": "string",
        "numberOfBytes": "32"
      },
      "t_uint256": {
        "encoding": "inplace",
        "label": "uint256",
        "numberOfBytes": "32"
      }
    }
  }
}