{
  "address": "0xEEE8B4522617FE2f992351CB7C34568A77042d1d",
  "abi": [
    {
      "inputs": [
        {
          "internalType": "address",
          "name": "oracleId_",
          "type": "address"
        },
        {
          "internalType": "string",
          "name": "jobId_",
          "type": "string"
        },
        {
          "internalType": "uint256",
          "name": "fee_",
          "type": "uint256"
        }
      ],
      "stateMutability": "nonpayable",
      "type": "constructor"
    },
    {
      "anonymous": false,
      "inputs": [
        {
          "indexed": true,
          "internalType": "bytes32",
          "name": "id",
          "type": "bytes32"
        }
      ],
      "name": "ChainlinkCancelled",
      "type": "event"
    },
    {
      "anonymous": false,
      "inputs": [
        {
          "indexed": true,
          "internalType": "bytes32",
          "name": "id",
          "type": "bytes32"
        }
      ],
      "name": "ChainlinkFulfilled",
      "type": "event"
    },
    {
      "anonymous": false,
      "inputs": [
        {
          "indexed": true,
          "internalType": "bytes32",
          "name": "id",
          "type": "bytes32"
        }
      ],
      "name": "ChainlinkRequested",
      "type": "event"
    },
    {
      "anonymous": false,
      "inputs": [
        {
          "indexed": true,
          "internalType": "address",
          "name": "from",
          "type": "address"
        },
        {
          "indexed": true,
          "internalType": "address",
          "name": "to",
          "type": "address"
        }
      ],
      "name": "OwnershipTransferRequested",
      "type": "event"
    },
    {
      "anonymous": false,
      "inputs": [
        {
          "indexed": true,
          "internalType": "address",
          "name": "from",
          "type": "address"
        },
        {
          "indexed": true,
          "internalType": "address",
          "name": "to",
          "type": "address"
        }
      ],
      "name": "OwnershipTransferred",
      "type": "event"
    },
    {
      "inputs": [],
      "name": "acceptOwnership",
      "outputs": [],
      "stateMutability": "nonpayable",
      "type": "function"
    },
    {
      "inputs": [
        {
          "internalType": "uint256",
          "name": "fee_",
          "type": "uint256"
        }
      ],
      "name": "changeFee",
      "outputs": [],
      "stateMutability": "nonpayable",
      "type": "function"
    },
    {
      "inputs": [
        {
          "internalType": "string",
          "name": "newJobId",
          "type": "string"
        }
      ],
      "name": "changeJobId",
      "outputs": [],
      "stateMutability": "nonpayable",
      "type": "function"
    },
    {
      "inputs": [
        {
          "internalType": "address",
          "name": "newOracle",
          "type": "address"
        }
      ],
      "name": "changeOracle",
      "outputs": [],
      "stateMutability": "nonpayable",
      "type": "function"
    },
    {
      "inputs": [],
      "name": "fee",
      "outputs": [
        {
          "internalType": "uint256",
          "name": "",
          "type": "uint256"
        }
      ],
      "stateMutability": "view",
      "type": "function"
    },
    {
      "inputs": [
        {
          "internalType": "bytes32",
          "name": "requestId",
          "type": "bytes32"
        },
        {
          "internalType": "bytes",
          "name": "inflation",
          "type": "bytes"
        }
      ],
      "name": "fulfillPrice",
      "outputs": [],
      "stateMutability": "nonpayable",
      "type": "function"
    },
    {
      "inputs": [],
      "name": "getChainlinkToken",
      "outputs": [
        {
          "internalType": "address",
          "name": "",
          "type": "address"
        }
      ],
      "stateMutability": "view",
      "type": "function"
    },
    {
      "inputs": [],
      "name": "getPrice",
      "outputs": [
        {
          "internalType": "uint256",
          "name": "",
          "type": "uint256"
        }
      ],
      "stateMutability": "view",
      "type": "function"
    },
    {
      "inputs": [],
      "name": "jobId",
      "outputs": [
        {
          "internalType": "string",
          "name": "",
          "type": "string"
        }
      ],
      "stateMutability": "view",
      "type": "function"
    },
    {
      "inputs": [],
      "name": "oracleId",
      "outputs": [
        {
          "internalType": "address",
          "name": "",
          "type": "address"
        }
      ],
      "stateMutability": "view",
      "type": "function"
    },
    {
      "inputs": [],
      "name": "owner",
      "outputs": [
        {
          "internalType": "address",
          "name": "",
          "type": "address"
        }
      ],
      "stateMutability": "view",
      "type": "function"
    },
    {
      "inputs": [],
      "name": "requestPrice",
      "outputs": [
        {
          "internalType": "bytes32",
          "name": "requestId",
          "type": "bytes32"
        }
      ],
      "stateMutability": "nonpayable",
      "type": "function"
    },
    {
      "inputs": [
        {
          "internalType": "address",
          "name": "to",
          "type": "address"
        }
      ],
      "name": "transferOwnership",
      "outputs": [],
      "stateMutability": "nonpayable",
      "type": "function"
    },
    {
      "inputs": [],
      "name": "withdrawLink",
      "outputs": [],
      "stateMutability": "nonpayable",
      "type": "function"
    }
  ],
  "transactionHash": "0x5589cd3b9dc6f5573d04ef39431296679748bf988afa87ed361a141b20da4654",
  "args": [
    "0xcf72083697aB8A45905870C387dC93f380f2557b",
    "f5da3804575a44a082347fababc4f11d",
    "10000000000000000"
  ],
  "numDeployments": 3,
  "solcInputHash": "6a83288367840f9cab6cae4f9dce0597",
  "bytecode": "0x608060405260016004553480156200001657600080fd5b506040516200196e3803806200196e833981016040819052620000399162000205565b3380600081620000905760405162461bcd60e51b815260206004820152601860248201527f43616e6e6f7420736574206f776e657220746f207a65726f000000000000000060448201526064015b60405180910390fd5b600680546001600160a01b0319166001600160a01b0384811691909117909155811615620000c357620000c38162000121565b505050620000eb73326c977e6efc84e512bb9c30f76e30c160ed06fb620001cd60201b60201c565b600980546001600160a01b0319166001600160a01b038516179055600a6200011483826200039d565b50600b5550620004699050565b336001600160a01b038216036200017b5760405162461bcd60e51b815260206004820152601760248201527f43616e6e6f74207472616e7366657220746f2073656c66000000000000000000604482015260640162000087565b600780546001600160a01b0319166001600160a01b03838116918217909255600654604051919216907fed8889f560326eb138920d842192f0eb3dd22b4f139c87a2c57538e05bae127890600090a350565b600280546001600160a01b0319166001600160a01b0392909216919091179055565b634e487b7160e01b600052604160045260246000fd5b6000806000606084860312156200021b57600080fd5b83516001600160a01b03811681146200023357600080fd5b602085810151919450906001600160401b03808211156200025357600080fd5b818701915087601f8301126200026857600080fd5b8151818111156200027d576200027d620001ef565b604051601f8201601f19908116603f01168101908382118183101715620002a857620002a8620001ef565b816040528281528a86848701011115620002c157600080fd5b600093505b82841015620002e55784840186015181850187015292850192620002c6565b82841115620002f75760008684830101525b809750505050505050604084015190509250925092565b600181811c908216806200032357607f821691505b6020821081036200034457634e487b7160e01b600052602260045260246000fd5b50919050565b601f8211156200039857600081815260208120601f850160051c81016020861015620003735750805b601f850160051c820191505b8181101562000394578281556001016200037f565b5050505b505050565b81516001600160401b03811115620003b957620003b9620001ef565b620003d181620003ca84546200030e565b846200034a565b602080601f831160018114620004095760008415620003f05750858301515b600019600386901b1c1916600185901b17855562000394565b600085815260208120601f198616915b828110156200043a5788860151825594840194600190910190840162000419565b5085821015620004595787850151600019600388901b60f8161c191681555b5050505050600190811b01905550565b6114f580620004796000396000f3fe608060405234801561001057600080fd5b50600436106100ea5760003560e01c80638dc654a21161008c578063c2939d9711610066578063c2939d97146101a1578063ddca3f43146101b6578063ebe337ac146101bf578063f2fde38b146101d257600080fd5b80638dc654a21461017e5780639063e2161461018657806398d5fdca1461019957600080fd5b806347c421b5116100c857806347c421b51461013d5780636a1db1bf1461015257806379ba5097146101655780638da5cb5b1461016d57600080fd5b80631604f9ea146100ef578063165d35e11461010a5780632121778d1461012a575b600080fd5b6100f76101e5565b6040519081526020015b60405180910390f35b61011261037e565b6040516001600160a01b039091168152602001610101565b600954610112906001600160a01b031681565b61015061014b366004610f06565b610397565b005b610150610160366004610f2f565b6103c1565b6101506103ce565b6006546001600160a01b0316610112565b610150610481565b610150610194366004610fd4565b6105c5565b6008546100f7565b6101a96105dd565b604051610101919061106a565b6100f7600b5481565b6101506101cd36600461107d565b61066b565b6101506101e0366004610f06565b610738565b6000806102036101f5600a61110c565b30633af8cdeb60e21b610749565b905061025b604051806040016040528060078152602001667365727669636560c81b8152506040518060400160405280600a81526020016936b4b732b93a37b5b2b760b11b8152508361076e9092919063ffffffff16565b6102ac604051806040016040528060078152602001660d6caf2e0c2e8d60cb1b81525060405180604001604052806005815260200164707269636560d81b8152508361076e9092919063ffffffff16565b6102fb6040518060400160405280600381526020016261626960e81b815250604051806040016040528060078152602001663ab4b73a191a9b60c91b8152508361076e9092919063ffffffff16565b61035d6040518060400160405280600a81526020016936bab63a34b83634b2b960b11b8152506040518060400160405280601381526020017203130303030303030303030303030303030303606c1b8152508361076e9092919063ffffffff16565b600954600b54610378916001600160a01b0316908390610791565b91505090565b60006103926002546001600160a01b031690565b905090565b61039f610824565b600980546001600160a01b0319166001600160a01b0392909216919091179055565b6103c9610824565b600b55565b6007546001600160a01b031633146104265760405162461bcd60e51b815260206004820152601660248201527526bab9ba10313290383937b837b9b2b21037bbb732b960511b60448201526064015b60405180910390fd5b600680546001600160a01b0319808216339081179093556007805490911690556040516001600160a01b03909116919082907f8be0079c531659141344cd1fd0a4f28419497f9722a3daafe3b4186f6b6457e090600090a350565b610489610824565b600061049d6002546001600160a01b031690565b6040516370a0823160e01b81523060048201529091506001600160a01b0382169063a9059cbb90339083906370a0823190602401602060405180830381865afa1580156104ee573d6000803e3d6000fd5b505050506040513d601f19601f82011682018060405250810190610512919061114d565b6040516001600160e01b031960e085901b1681526001600160a01b03909216600483015260248201526044016020604051808303816000875af115801561055d573d6000803e3d6000fd5b505050506040513d601f19601f820116820180604052508101906105819190611166565b6105c25760405162461bcd60e51b81526020600482015260126024820152712ab730b13632903a37903a3930b739b332b960711b604482015260640161041d565b50565b6105cd610824565b600a6105d982826111d6565b5050565b600a80546105ea906110d8565b80601f0160208091040260200160405190810160405280929190818152602001828054610616906110d8565b80156106635780601f1061063857610100808354040283529160200191610663565b820191906000526020600020905b81548152906001019060200180831161064657829003601f168201915b505050505081565b60008281526005602052604090205482906001600160a01b031633146106e45760405162461bcd60e51b815260206004820152602860248201527f536f75726365206d75737420626520746865206f7261636c65206f6620746865604482015267081c995c5d595cdd60c21b606482015260840161041d565b60008181526005602052604080822080546001600160a01b03191690555182917f7cc135e0cebb02c3480ae5d74d377283180a2601f8f644edf7987b009316c63a91a261073082611296565b600855505050565b610740610824565b6105c281610879565b610751610ecb565b610759610ecb565b61076581868686610923565b95945050505050565b608083015161077d9083610969565b608083015161078c9082610969565b505050565b6004546000906107a28160016112d0565b600455835160408086015160808701515191516000936320214ca360e11b936107da9386938493923092918a916001916024016112e8565b60408051601f198184030181529190526020810180516001600160e01b03166001600160e01b031990931692909217909152905061081a86838684610980565b9695505050505050565b6006546001600160a01b031633146108775760405162461bcd60e51b815260206004820152601660248201527527b7363c9031b0b63630b1363290313c9037bbb732b960511b604482015260640161041d565b565b336001600160a01b038216036108d15760405162461bcd60e51b815260206004820152601760248201527f43616e6e6f74207472616e7366657220746f2073656c66000000000000000000604482015260640161041d565b600780546001600160a01b0319166001600160a01b03838116918217909255600654604051919216907fed8889f560326eb138920d842192f0eb3dd22b4f139c87a2c57538e05bae127890600090a350565b61092b610ecb565b61093b8560800151610100610ade565b50508284526001600160a01b03821660208501526001600160e01b031981166040850152835b949350505050565b6109768260038351610b49565b61078c8282610c5e565b6040516bffffffffffffffffffffffff193060601b1660208201526034810184905260009060540160408051808303601f1901815282825280516020918201206000818152600590925291812080546001600160a01b0319166001600160a01b038a1617905590925082917fb5e6e01e79f91267dc17b4e6314d5d4d03593d2ceee0fbb452b750bd70ea5af99190a2600254604051630200057560e51b81526001600160a01b0390911690634000aea090610a4390889087908790600401611350565b6020604051808303816000875af1158015610a62573d6000803e3d6000fd5b505050506040513d601f19601f82011682018060405250810190610a869190611166565b6109615760405162461bcd60e51b815260206004820152602360248201527f756e61626c6520746f207472616e73666572416e6443616c6c20746f206f7261604482015262636c6560e81b606482015260840161041d565b604080518082019091526060815260006020820152610afe602083611377565b15610b2657610b0e602083611377565b610b19906020611399565b610b2390836112d0565b91505b506020808301829052604080518085526000815283019091019052815b92915050565b60178167ffffffffffffffff1611610b7457610b6e8360e0600585901b168317610c8c565b50505050565b60ff8167ffffffffffffffff1611610bb257610b9b836018611fe0600586901b1617610c8c565b50610b6e8367ffffffffffffffff83166001610cb1565b61ffff8167ffffffffffffffff1611610bf157610bda836019611fe0600586901b1617610c8c565b50610b6e8367ffffffffffffffff83166002610cb1565b63ffffffff8167ffffffffffffffff1611610c3257610c1b83601a611fe0600586901b1617610c8c565b50610b6e8367ffffffffffffffff83166004610cb1565b610c4783601b611fe0600586901b1617610c8c565b50610b6e8367ffffffffffffffff83166008610cb1565b604080518082019091526060815260006020820152610c8583846000015151848551610cd7565b9392505050565b604080518082019091526060815260006020820152610c858384600001515184610dc1565b604080518082019091526060815260006020820152610961848560000151518585610e1c565b6040805180820190915260608152600060208201528251821115610cfa57600080fd5b6020850151610d0983866112d0565b1115610d3c57610d3c85610d2c87602001518786610d2791906112d0565b610e9d565b610d379060026113b0565b610eb4565b600080865180518760208301019350808887011115610d5b5787860182525b505050602084015b60208410610d9b5780518252610d7a6020836112d0565b9150610d876020826112d0565b9050610d94602085611399565b9350610d63565b51815160001960208690036101000a019081169019919091161790525083949350505050565b60408051808201909152606081526000602082015283602001518310610df657610df68485602001516002610d3791906113b0565b8351805160208583010184815350808503610e12576001810182525b5093949350505050565b6040805180820190915260608152600060208201526020850151610e4085846112d0565b1115610e5457610e5485610d2c86856112d0565b60006001610e64846101006114b3565b610e6e9190611399565b9050855183868201018583198251161781525080518487011115610e925783860181525b509495945050505050565b600081831115610eae575081610b43565b50919050565b8151610ec08383610ade565b50610b6e8382610c5e565b6040805160a0810182526000808252602080830182905282840182905260608084018390528451808601909552845283015290608082015290565b600060208284031215610f1857600080fd5b81356001600160a01b0381168114610c8557600080fd5b600060208284031215610f4157600080fd5b5035919050565b634e487b7160e01b600052604160045260246000fd5b600067ffffffffffffffff80841115610f7957610f79610f48565b604051601f8501601f19908116603f01168101908282118183101715610fa157610fa1610f48565b81604052809350858152868686011115610fba57600080fd5b858560208301376000602087830101525050509392505050565b600060208284031215610fe657600080fd5b813567ffffffffffffffff811115610ffd57600080fd5b8201601f8101841361100e57600080fd5b61096184823560208401610f5e565b6000815180845260005b8181101561104357602081850181015186830182015201611027565b81811115611055576000602083870101525b50601f01601f19169290920160200192915050565b602081526000610c85602083018461101d565b6000806040838503121561109057600080fd5b82359150602083013567ffffffffffffffff8111156110ae57600080fd5b8301601f810185136110bf57600080fd5b6110ce85823560208401610f5e565b9150509250929050565b600181811c908216806110ec57607f821691505b602082108103610eae57634e487b7160e01b600052602260045260246000fd5b600061111882546110d8565b82601f82111561112e5783600052602060002090505b5491506020811015610eae5760001960209190910360031b1b16919050565b60006020828403121561115f57600080fd5b5051919050565b60006020828403121561117857600080fd5b81518015158114610c8557600080fd5b601f82111561078c57600081815260208120601f850160051c810160208610156111af5750805b601f850160051c820191505b818110156111ce578281556001016111bb565b505050505050565b815167ffffffffffffffff8111156111f0576111f0610f48565b611204816111fe84546110d8565b84611188565b602080601f83116001811461123957600084156112215750858301515b600019600386901b1c1916600185901b1785556111ce565b600085815260208120601f198616915b8281101561126857888601518255948401946001909101908401611249565b50858210156112865787850151600019600388901b60f8161c191681555b5050505050600190811b01905550565b80516020808301519190811015610eae5760001960209190910360031b1b16919050565b634e487b7160e01b600052601160045260246000fd5b600082198211156112e3576112e36112ba565b500190565b6001600160a01b0389811682526020820189905260408201889052861660608201526001600160e01b03198516608082015260a0810184905260c0810183905261010060e082018190526000906113418382018561101d565b9b9a5050505050505050505050565b60018060a01b0384168152826020820152606060408201526000610765606083018461101d565b60008261139457634e487b7160e01b600052601260045260246000fd5b500690565b6000828210156113ab576113ab6112ba565b500390565b60008160001904831182151516156113ca576113ca6112ba565b500290565b600181815b8085111561140a5781600019048211156113f0576113f06112ba565b808516156113fd57918102915b93841c93908002906113d4565b509250929050565b60008261142157506001610b43565b8161142e57506000610b43565b8160018114611444576002811461144e5761146a565b6001915050610b43565b60ff84111561145f5761145f6112ba565b50506001821b610b43565b5060208310610133831016604e8410600b841016171561148d575081810a610b43565b61149783836113cf565b80600019048211156114ab576114ab6112ba565b029392505050565b6000610c85838361141256fea2646970667358221220c26c08b667de396e96feea2980ab98152a9fa4b3c8cfa0d707c3fb6df893e36164736f6c634300080f0033",
  "devdoc": {
    "kind": "dev",
    "methods": {},
    "version": 1
  },
  "userdoc": {
    "kind": "user",
    "methods": {
      "acceptOwnership()": {
        "notice": "Allows an ownership transfer to be completed by the recipient."
      },
      "owner()": {
        "notice": "Get the current owner"
      },
      "transferOwnership(address)": {
        "notice": "Allows an owner to begin transferring ownership to a new address, pending."
      }
    },
    "version": 1
  },
  "storageLayout": {
    "storage": [
      {
        "astId": 319,
        "contract": "contracts/TruflationKeeper.sol:TruflationKeeper",
        "label": "s_ens",
        "offset": 0,
        "slot": "0",
        "type": "t_contract(ENSInterface)1156"
      },
      {
        "astId": 321,
        "contract": "contracts/TruflationKeeper.sol:TruflationKeeper",
        "label": "s_ensNode",
        "offset": 0,
        "slot": "1",
        "type": "t_bytes32"
      },
      {
        "astId": 324,
        "contract": "contracts/TruflationKeeper.sol:TruflationKeeper",
        "label": "s_link",
        "offset": 0,
        "slot": "2",
        "type": "t_contract(LinkTokenInterface)1251"
      },
      {
        "astId": 327,
        "contract": "contracts/TruflationKeeper.sol:TruflationKeeper",
        "label": "s_oracle",
        "offset": 0,
        "slot": "3",
        "type": "t_contract(OperatorInterface)1331"
      },
      {
        "astId": 330,
        "contract": "contracts/TruflationKeeper.sol:TruflationKeeper",
        "label": "s_requestCount",
        "offset": 0,
        "slot": "4",
        "type": "t_uint256"
      },
      {
        "astId": 334,
        "contract": "contracts/TruflationKeeper.sol:TruflationKeeper",
        "label": "s_pendingRequests",
        "offset": 0,
        "slot": "5",
        "type": "t_mapping(t_bytes32,t_address)"
      },
      {
        "astId": 889,
        "contract": "contracts/TruflationKeeper.sol:TruflationKeeper",
        "label": "s_owner",
        "offset": 0,
        "slot": "6",
        "type": "t_address"
      },
      {
        "astId": 891,
        "contract": "contracts/TruflationKeeper.sol:TruflationKeeper",
        "label": "s_pendingOwner",
        "offset": 0,
        "slot": "7",
        "type": "t_address"
      },
      {
        "astId": 2390,
        "contract": "contracts/TruflationKeeper.sol:TruflationKeeper",
        "label": "price",
        "offset": 0,
        "slot": "8",
        "type": "t_uint256"
      },
      {
        "astId": 2392,
        "contract": "contracts/TruflationKeeper.sol:TruflationKeeper",
        "label": "oracleId",
        "offset": 0,
        "slot": "9",
        "type": "t_address"
      },
      {
        "astId": 2394,
        "contract": "contracts/TruflationKeeper.sol:TruflationKeeper",
        "label": "jobId",
        "offset": 0,
        "slot": "10",
        "type": "t_string_storage"
      },
      {
        "astId": 2396,
        "contract": "contracts/TruflationKeeper.sol:TruflationKeeper",
        "label": "fee",
        "offset": 0,
        "slot": "11",
        "type": "t_uint256"
      }
    ],
    "types": {
      "t_address": {
        "encoding": "inplace",
        "label": "address",
        "numberOfBytes": "20"
      },
      "t_bytes32": {
        "encoding": "inplace",
        "label": "bytes32",
        "numberOfBytes": "32"
      },
      "t_contract(ENSInterface)1156": {
        "encoding": "inplace",
        "label": "contract ENSInterface",
        "numberOfBytes": "20"
      },
      "t_contract(LinkTokenInterface)1251": {
        "encoding": "inplace",
        "label": "contract LinkTokenInterface",
        "numberOfBytes": "20"
      },
      "t_contract(OperatorInterface)1331": {
        "encoding": "inplace",
        "label": "contract OperatorInterface",
        "numberOfBytes": "20"
      },
      "t_mapping(t_bytes32,t_address)": {
        "encoding": "mapping",
        "key": "t_bytes32",
        "label": "mapping(bytes32 => address)",
        "numberOfBytes": "32",
        "value": "t_address"
      },
      "t_string_storage": {
        "encoding": "bytes",
        "label": "string",
        "numberOfBytes": "32"
      },
      "t_uint256": {
        "encoding": "inplace",
        "label": "uint256",
        "numberOfBytes": "32"
      }
    }
  }
}